{
  "_format": "hh-sol-artifact-1",
  "contractName": "TicketPass",
  "sourceName": "contracts/TicketPass.sol",
  "abi": [
    {
      "anonymous": false,
      "inputs": [
        {
          "indexed": false,
          "internalType": "bool",
          "name": "",
          "type": "bool"
        },
        {
          "indexed": false,
          "internalType": "bytes",
          "name": "",
          "type": "bytes"
        }
      ],
      "name": "CallResponseEvent",
      "type": "event"
    },
    {
      "anonymous": false,
      "inputs": [
        {
          "indexed": true,
          "internalType": "address",
          "name": "buyer",
          "type": "address"
        },
        {
          "indexed": false,
          "internalType": "uint256",
          "name": "ticketPassId",
          "type": "uint256"
        },
        {
          "indexed": false,
          "internalType": "uint256",
          "name": "amount",
          "type": "uint256"
        }
      ],
      "name": "PassPurchased",
      "type": "event"
    },
    {
      "anonymous": false,
      "inputs": [
        {
          "indexed": true,
          "internalType": "address",
          "name": "organizer",
          "type": "address"
        },
        {
          "indexed": false,
          "internalType": "uint256",
          "name": "ticketPassId",
          "type": "uint256"
        },
        {
          "indexed": false,
          "internalType": "address",
          "name": "tokenAddress",
          "type": "address"
        }
      ],
      "name": "ticketPassCreated",
      "type": "event"
    },
    {
      "inputs": [
        {
          "internalType": "int64",
          "name": "_maxPasses",
          "type": "int64"
        },
        {
          "internalType": "uint256",
          "name": "_passPrice",
          "type": "uint256"
        },
        {
          "internalType": "string",
          "name": "_metadata",
          "type": "string"
        },
        {
          "internalType": "string",
          "name": "_category",
          "type": "string"
        },
        {
          "internalType": "uint256",
          "name": "_salesEndTime",
          "type": "uint256"
        }
      ],
      "name": "createticketPass",
      "outputs": [
        {
          "internalType": "address",
          "name": "",
          "type": "address"
        }
      ],
      "stateMutability": "payable",
      "type": "function"
    },
    {
      "inputs": [],
      "name": "getAllticketPasses",
      "outputs": [
        {
          "components": [
            {
              "internalType": "address",
              "name": "organizer",
              "type": "address"
            },
            {
              "internalType": "string",
              "name": "metadata",
              "type": "string"
            },
            {
              "internalType": "string",
              "name": "category",
              "type": "string"
            },
            {
              "internalType": "address",
              "name": "tokenAddress",
              "type": "address"
            },
            {
              "internalType": "int64",
              "name": "passesSold",
              "type": "int64"
            },
            {
              "internalType": "int64",
              "name": "max_passes",
              "type": "int64"
            },
            {
              "internalType": "uint256",
              "name": "passPrice",
              "type": "uint256"
            },
            {
              "internalType": "uint256",
              "name": "startTime",
              "type": "uint256"
            },
            {
              "internalType": "uint256",
              "name": "salesEndTime",
              "type": "uint256"
            },
            {
              "internalType": "bool",
              "name": "bpEnded",
              "type": "bool"
            }
          ],
          "internalType": "struct TicketPass.ticketPassDetails[]",
          "name": "",
          "type": "tuple[]"
        }
      ],
      "stateMutability": "view",
      "type": "function"
    },
    {
      "inputs": [
        {
          "internalType": "address",
          "name": "_user",
          "type": "address"
        }
      ],
      "name": "getUserPasses",
      "outputs": [
        {
          "internalType": "uint256[]",
          "name": "",
          "type": "uint256[]"
        }
      ],
      "stateMutability": "view",
      "type": "function"
    },
    {
      "inputs": [
        {
          "internalType": "address",
          "name": "",
          "type": "address"
        },
        {
          "internalType": "uint256",
          "name": "",
          "type": "uint256"
        }
      ],
      "name": "passesPurchasedByUser",
      "outputs": [
        {
          "internalType": "uint256",
          "name": "",
          "type": "uint256"
        }
      ],
      "stateMutability": "view",
      "type": "function"
    },
    {
      "inputs": [
        {
          "internalType": "uint256",
          "name": "_ticketPassId",
          "type": "uint256"
        },
        {
          "internalType": "string",
          "name": "_metadata",
          "type": "string"
        }
      ],
      "name": "purchasePass",
      "outputs": [],
      "stateMutability": "payable",
      "type": "function"
    },
    {
      "inputs": [
        {
          "internalType": "address",
          "name": "token",
          "type": "address"
        },
        {
          "internalType": "bytes",
          "name": "encodedFunctionSelector",
          "type": "bytes"
        }
      ],
      "name": "redirectForToken",
      "outputs": [
        {
          "internalType": "int256",
          "name": "responseCode",
          "type": "int256"
        },
        {
          "internalType": "bytes",
          "name": "response",
          "type": "bytes"
        }
      ],
      "stateMutability": "nonpayable",
      "type": "function"
    },
    {
      "inputs": [],
      "name": "ticketPassCount",
      "outputs": [
        {
          "internalType": "uint256",
          "name": "",
          "type": "uint256"
        }
      ],
      "stateMutability": "view",
      "type": "function"
    },
    {
      "inputs": [
        {
          "internalType": "uint256",
          "name": "",
          "type": "uint256"
        }
      ],
      "name": "ticketPasses",
      "outputs": [
        {
          "internalType": "address",
          "name": "organizer",
          "type": "address"
        },
        {
          "internalType": "string",
          "name": "metadata",
          "type": "string"
        },
        {
          "internalType": "string",
          "name": "category",
          "type": "string"
        },
        {
          "internalType": "address",
          "name": "tokenAddress",
          "type": "address"
        },
        {
          "internalType": "int64",
          "name": "passesSold",
          "type": "int64"
        },
        {
          "internalType": "int64",
          "name": "max_passes",
          "type": "int64"
        },
        {
          "internalType": "uint256",
          "name": "passPrice",
          "type": "uint256"
        },
        {
          "internalType": "uint256",
          "name": "startTime",
          "type": "uint256"
        },
        {
          "internalType": "uint256",
          "name": "salesEndTime",
          "type": "uint256"
        },
        {
          "internalType": "bool",
          "name": "bpEnded",
          "type": "bool"
        }
      ],
      "stateMutability": "view",
      "type": "function"
    },
    {
      "inputs": [
        {
          "internalType": "address",
          "name": "token",
          "type": "address"
        },
        {
          "internalType": "address",
          "name": "from",
          "type": "address"
        },
        {
          "internalType": "address",
          "name": "to",
          "type": "address"
        },
        {
          "internalType": "uint256",
          "name": "amount",
          "type": "uint256"
        }
      ],
      "name": "transferFrom",
      "outputs": [
        {
          "internalType": "int64",
          "name": "responseCode",
          "type": "int64"
        }
      ],
      "stateMutability": "nonpayable",
      "type": "function"
    },
    {
      "inputs": [
        {
          "internalType": "address",
          "name": "token",
          "type": "address"
        },
        {
          "internalType": "address",
          "name": "from",
          "type": "address"
        },
        {
          "internalType": "address",
          "name": "to",
          "type": "address"
        },
        {
          "internalType": "uint256",
          "name": "serialNumber",
          "type": "uint256"
        }
      ],
      "name": "transferFromNFT",
      "outputs": [
        {
          "internalType": "int64",
          "name": "responseCode",
          "type": "int64"
        }
      ],
      "stateMutability": "nonpayable",
      "type": "function"
    }
  ],
  "bytecode": "0x6080604052600580546001600160401b03191662278d0017905534801561002557600080fd5b50600160208181527fa6eef7e35abe7026729641147f7915573c7e97b47efa546f5f6e3230263bcb499190915560027fcc69885fda6bcc1a4ace058b4a62bf5e179ea78fd58a1ccd71c22cc9b688792f5560047fd9d16d34ffb15ba3a3d852f0d403e2ce1d691fb54de27ac87cd2f993f3ec330f5560087f7dfe757ecd65cbd7922a9c0161e935dd7fdbcc0e999689c7d31633896b1fc60b5560107fedc95719e9a3b28dd8e80877cb5880a9be7de1a13fc8b05e7999683b6b567643557fe2689cd4a84e23ad2f564004f1c9013e9589d260bde6380aba3ca7e09e4df40c55600660005260407f8f331abe73332f95a25873e8b430885974c0409691f89d643119a11623a7924a5561212b8061013c6000396000f3fe6080604052600436106100915760003560e01c8063618dc65e11610059578063618dc65e1461015e5780637a5e3ce41461018c5780638944a3b9146101a25780639b23d3d9146101d8578063bc38d48c146101f857600080fd5b80630c1f56591461009657806315dacbea146100c95780631da2acad146100fc5780633e15387a146101115780635e1858e114610133575b600080fd5b3480156100a257600080fd5b506100b66100b1366004611756565b610225565b6040519081526020015b60405180910390f35b3480156100d557600080fd5b506100e96100e4366004611782565b610256565b60405160079190910b81526020016100c0565b61010f61010a366004611899565b61034a565b005b34801561011d57600080fd5b50610126610833565b6040516100c0919061193c565b610146610141366004611a58565b610ae9565b6040516001600160a01b0390911681526020016100c0565b34801561016a57600080fd5b5061017e610179366004611ae0565b610f7a565b6040516100c0929190611b3a565b34801561019857600080fd5b506100b660025481565b3480156101ae57600080fd5b506101c26101bd366004611b5b565b611098565b6040516100c09a99989796959493929190611b74565b3480156101e457600080fd5b506100e96101f3366004611782565b611216565b34801561020457600080fd5b50610218610213366004611bec565b61125b565b6040516100c09190611c09565b6004602052816000526040600020818154811061024157600080fd5b90600052602060002001600091509150505481565b6040516001600160a01b038581166024830152848116604483015283166064820152608481018290526000908190819061016790630aed65f560e11b9060a4015b60408051601f198184030181529181526020820180516001600160e01b03166001600160e01b03199094169390931790925290516102d59190611c4d565b6000604051808303816000865af19150503d8060008114610312576040519150601f19603f3d011682016040523d82523d6000602084013e610317565b606091505b50915091508161032857601561033c565b8080602001905181019061033c9190611c80565b60030b979650505050505050565b60008281526003602090815260408083208151610140810190925280546001600160a01b03168252600181018054929391929184019161038990611c9b565b80601f01602080910402602001604051908101604052809291908181526020018280546103b590611c9b565b80156104025780601f106103d757610100808354040283529160200191610402565b820191906000526020600020905b8154815290600101906020018083116103e557829003601f168201915b5050505050815260200160028201805461041b90611c9b565b80601f016020809104026020016040519081016040528092919081815260200182805461044790611c9b565b80156104945780601f1061046957610100808354040283529160200191610494565b820191906000526020600020905b81548152906001019060200180831161047757829003601f168201915b505050918352505060038201546001600160a01b0381166020830152600160a01b9004600790810b60408301526004830154810b606083015260058301546080830152600683015460a083015282015460c08083019190915260089092015460ff16151560e0909101528101519091503410156105585760405162461bcd60e51b815260206004820152601460248201527f496e73756666696369656e74207061796d656e7400000000000000000000000060448201526064015b60405180910390fd5b80610100015142111561059b5760405162461bcd60e51b815260206004820152600b60248201526a14d85b195cc8195b99195960aa1b604482015260640161054f565b8060a0015160070b816080015160070b126105e35760405162461bcd60e51b815260206004820152600860248201526714dbdb19081bdd5d60c21b604482015260640161054f565b806101200151156106245760405162461bcd60e51b815260206004820152600b60248201526a115d995b9d08195b99195960aa1b604482015260640161054f565b604080516001808252818301909252839160009190816020015b606081526020019060019003908161063e579050509050818160008151811061066957610669611cd0565b602002602001018190525060008061068785606001516000856112c7565b9250509150601660030b82146106e95760405162461bcd60e51b815260206004820152602160248201527f4661696c656420746f206d696e74206e6f6e2d66756e6769626c6520746f6b656044820152603760f91b606482015260840161054f565b6000610715866060015130338560008151811061070857610708611cd0565b60200260200101516113c5565b9050601681146107755760405162461bcd60e51b815260206004820152602560248201527f4661696c656420746f207472616e73666572206e6f6e2d66756e6769626c65206044820152643a37b5b2b760d91b606482015260840161054f565b6000888152600360208190526040909120018054600160a01b900460070b90601461079f83611cfc565b825467ffffffffffffffff9182166101009390930a928302919092021990911617905550336000818152600460209081526040808320805460018101825590845291909220018a9055517f95f6a08cb3a2fbe1fae99a2b3b4e974c92f3f86c5abbe085486c5433d9a5ef6b90610821908b903490918252602082015260400190565b60405180910390a25050505050505050565b6060600060025467ffffffffffffffff811115610852576108526117d3565b6040519080825280602002602001820160405280156108f357816020015b6108e060405180610140016040528060006001600160a01b03168152602001606081526020016060815260200160006001600160a01b03168152602001600060070b8152602001600060070b81526020016000815260200160008152602001600081526020016000151581525090565b8152602001906001900390816108705790505b50905060005b600254811015610ae3576000818152600360209081526040918290208251610140810190935280546001600160a01b03168352600181018054919284019161094090611c9b565b80601f016020809104026020016040519081016040528092919081815260200182805461096c90611c9b565b80156109b95780601f1061098e576101008083540402835291602001916109b9565b820191906000526020600020905b81548152906001019060200180831161099c57829003601f168201915b505050505081526020016002820180546109d290611c9b565b80601f01602080910402602001604051908101604052809291908181526020018280546109fe90611c9b565b8015610a4b5780601f10610a2057610100808354040283529160200191610a4b565b820191906000526020600020905b815481529060010190602001808311610a2e57829003601f168201915b505050918352505060038201546001600160a01b0381166020830152600160a01b9004600790810b60408301526004830154810b606083015260058301546080830152600683015460a083015282015460c082015260089091015460ff16151560e0909101528251839083908110610ac557610ac5611cd0565b60200260200101819052508080610adb90611d23565b9150506108f9565b50919050565b6000808660070b13610b475760405162461bcd60e51b815260206004820152602160248201527f4d617820706173736573206d7573742062652067726561746572207468616e206044820152600360fc1b606482015260840161054f565b428211610b965760405162461bcd60e51b815260206004820152601e60248201527f456e642074696d65206d75737420626520696e20746865206675747572650000604482015260640161054f565b604080516001808252818301909252600091816020015b610bb5611648565b815260200190600190039081610bad579050509050610bd7600460013061140d565b81600081518110610bea57610bea611cd0565b6020026020010181905250610c5b60408051610120810182526060808252602080830182905260008385018190528284018390526080840181905260a0840181905260c0840181905260e0840183905284519283018552808352908201819052928101929092529061010082015290565b604080518082018252600f8082527f5469636b657450617373546f6b656e000000000000000000000000000000000060208084019190915291845282518084018452600381526215141560ea1b8184015284830152825180840184529081527f5469636b657450617373204e465473000000000000000000000000000000000081830152606080850191909152308484018190526001608086015260078c810b60a087015260e08601879052600060c0870181905260055486519485018752908452938301919091529190910b91810191909152610100820152600080610d428334611442565b909250905060168214610da35760405162461bcd60e51b815260206004820152602360248201527f4661696c656420746f20637265617465206e6f6e2d66756e6769626c6520746f60448201526235b2b760e91b606482015260840161054f565b604051806101400160405280336001600160a01b03168152602001898152602001888152602001826001600160a01b03168152602001600060070b81526020018b60070b81526020018a81526020014281526020018781526020016000151581525060036000600254815260200190815260200160002060008201518160000160006101000a8154816001600160a01b0302191690836001600160a01b031602179055506020820151816001019080519060200190610e639291906116a5565b5060408201518051610e7f9160028401916020909101906116a5565b50606082015160038201805460808501516001600160a01b039384166001600160e01b031990921691909117600160a01b67ffffffffffffffff928316021790915560a084015160048401805467ffffffffffffffff19169190921617905560c0830151600583015560e083015160068301556101008301516007830155610120909201516008909101805460ff191691151591909117905560025460408051918252918316602082015233917f16164c0a9c7e083088b6127c0f4b0c9eab355844b327dc1c0afa8d5507e48089910160405180910390a260028054906000610f6783611d23565b90915550909a9950505050505050505050565b600060606000806101676001600160a01b031663618dc65e60e01b8787604051602401610fa8929190611d3e565b60408051601f198184030181529181526020820180516001600160e01b03166001600160e01b0319909416939093179092529051610fe69190611c4d565b6000604051808303816000865af19150503d8060008114611023576040519150601f19603f3d011682016040523d82523d6000602084013e611028565b606091505b50915091507f4af4780e06fe8cb9df64b0794fa6f01399af979175bb988e35e0e57e594567bc828260405161105e929190611d60565b60405180910390a18161108257601560405180602001604052806000815250611086565b6016815b60039190910b97909650945050505050565b600360205260009081526040902080546001820180546001600160a01b0390921692916110c490611c9b565b80601f01602080910402602001604051908101604052809291908181526020018280546110f090611c9b565b801561113d5780601f106111125761010080835404028352916020019161113d565b820191906000526020600020905b81548152906001019060200180831161112057829003601f168201915b50505050509080600201805461115290611c9b565b80601f016020809104026020016040519081016040528092919081815260200182805461117e90611c9b565b80156111cb5780601f106111a0576101008083540402835291602001916111cb565b820191906000526020600020905b8154815290600101906020018083116111ae57829003601f168201915b50505050600383015460048401546005850154600686015460078088015460089098015496976001600160a01b03861697600160a01b909604820b965093900b939192909160ff168a565b6040516001600160a01b038581166024830152848116604483015283166064820152608481018290526000908190819061016790639b23d3d960e01b9060a401610297565b6001600160a01b0381166000908152600460209081526040918290208054835181840281018401909452808452606093928301828280156112bb57602002820191906000526020600020905b8154815260200190600101908083116112a7575b50505050509050919050565b60008060606000806101676001600160a01b031663e0f4059a60e01b8989896040516024016112f893929190611d7b565b60408051601f198184030181529181526020820180516001600160e01b03166001600160e01b03199094169390931790925290516113369190611c4d565b6000604051808303816000865af19150503d8060008114611373576040519150601f19603f3d011682016040523d82523d6000602084013e611378565b606091505b50915091508161139b5760408051600080825260208201909252601591906113af565b808060200190518101906113af9190611df8565b60039290920b9a90995090975095505050505050565b6040516001600160a01b038581166024830152848116604483015283166064820152600782900b60848201526000908190819061016790635cfc901160e01b9060a401610297565b611415611648565b604051806040016040528061142986611565565b815260200161143885856115a4565b9052949350505050565b600080838061010001516000015160070b600014801561146c57506101008101516040015160070b155b15611482576101008101516276a7006040909101525b6000806101676001600160a01b03168663ea83f29360e01b896040516024016114ab9190611f94565b60408051601f198184030181529181526020820180516001600160e01b03166001600160e01b03199094169390931790925290516114e99190611c4d565b60006040518083038185875af1925050503d8060008114611526576040519150601f19603f3d011682016040523d82523d6000602084013e61152b565b606091505b50915091508161153e5760156000611552565b8080602001905181019061155291906120a8565b60039190910b9890975095505050505050565b60006001600083600681111561157d5761157d6120df565b600681111561158e5761158e6120df565b8152602001908152602001600020549050919050565b6115ea6040518060a0016040528060001515815260200160006001600160a01b03168152602001606081526020016060815260200160006001600160a01b031681525090565b60018360048111156115fe576115fe6120df565b1415611618576001600160a01b0382166020820152611642565b600483600481111561162c5761162c6120df565b1415611642576001600160a01b03821660808201525b92915050565b6040518060400160405280600081526020016116a06040518060a0016040528060001515815260200160006001600160a01b03168152602001606081526020016060815260200160006001600160a01b031681525090565b905290565b8280546116b190611c9b565b90600052602060002090601f0160209004810192826116d35760008555611719565b82601f106116ec57805160ff1916838001178555611719565b82800160010185558215611719579182015b828111156117195782518255916020019190600101906116fe565b50611725929150611729565b5090565b5b80821115611725576000815560010161172a565b6001600160a01b038116811461175357600080fd5b50565b6000806040838503121561176957600080fd5b82356117748161173e565b946020939093013593505050565b6000806000806080858703121561179857600080fd5b84356117a38161173e565b935060208501356117b38161173e565b925060408501356117c38161173e565b9396929550929360600135925050565b634e487b7160e01b600052604160045260246000fd5b604051601f8201601f1916810167ffffffffffffffff81118282101715611812576118126117d3565b604052919050565b600067ffffffffffffffff831115611834576118346117d3565b611847601f8401601f19166020016117e9565b905082815283838301111561185b57600080fd5b828260208301376000602084830101529392505050565b600082601f83011261188357600080fd5b6118928383356020850161181a565b9392505050565b600080604083850312156118ac57600080fd5b82359150602083013567ffffffffffffffff8111156118ca57600080fd5b6118d685828601611872565b9150509250929050565b60005b838110156118fb5781810151838201526020016118e3565b8381111561190a576000848401525b50505050565b600081518084526119288160208601602086016118e0565b601f01601f19169290920160200192915050565b60006020808301818452808551808352604092508286019150828160051b87010184880160005b83811015611a3b57888303603f19018552815180516001600160a01b0316845261014088820151818a87015261199b82870182611910565b91505087820151858203898701526119b38282611910565b9150506060808301516119d0828801826001600160a01b03169052565b50506080808301516119e68288018260070b9052565b505060a0808301516119fc8288018260070b9052565b505060c0828101519086015260e08083015190860152610100808301519086015261012091820151151591909401529386019390860190600101611963565b509098975050505050505050565b8060070b811461175357600080fd5b600080600080600060a08688031215611a7057600080fd5b8535611a7b81611a49565b945060208601359350604086013567ffffffffffffffff80821115611a9f57600080fd5b611aab89838a01611872565b94506060880135915080821115611ac157600080fd5b50611ace88828901611872565b95989497509295608001359392505050565b60008060408385031215611af357600080fd5b8235611afe8161173e565b9150602083013567ffffffffffffffff811115611b1a57600080fd5b8301601f81018513611b2b57600080fd5b6118d68582356020840161181a565b828152604060208201526000611b536040830184611910565b949350505050565b600060208284031215611b6d57600080fd5b5035919050565b60006101406001600160a01b03808e168452816020850152611b988285018e611910565b91508382036040850152611bac828d611910565b9a1660608401525050600796870b60808201529490950b60a085015260c084019290925260e0830152610100820152901515610120909101529392505050565b600060208284031215611bfe57600080fd5b81356118928161173e565b6020808252825182820181905260009190848201906040850190845b81811015611c4157835183529284019291840191600101611c25565b50909695505050505050565b60008251611c5f8184602087016118e0565b9190910192915050565b8051600381900b8114611c7b57600080fd5b919050565b600060208284031215611c9257600080fd5b61189282611c69565b600181811c90821680611caf57607f821691505b60208210811415610ae357634e487b7160e01b600052602260045260246000fd5b634e487b7160e01b600052603260045260246000fd5b634e487b7160e01b600052601160045260246000fd5b60008160070b677fffffffffffffff811415611d1a57611d1a611ce6565b60010192915050565b6000600019821415611d3757611d37611ce6565b5060010190565b6001600160a01b0383168152604060208201526000611b536040830184611910565b8215158152604060208201526000611b536040830184611910565b6000606082016001600160a01b038616835260208560070b818501526060604085015281855180845260808601915060808160051b870101935082870160005b82811015611de957607f19888703018452611dd7868351611910565b95509284019290840190600101611dbb565b50939998505050505050505050565b600080600060608486031215611e0d57600080fd5b611e1684611c69565b9250602080850151611e2781611a49565b604086015190935067ffffffffffffffff80821115611e4557600080fd5b818701915087601f830112611e5957600080fd5b815181811115611e6b57611e6b6117d3565b8060051b9150611e7c8483016117e9565b818152918301840191848101908a841115611e9657600080fd5b938501935b83851015611ec05784519250611eb083611a49565b8282529385019390850190611e9b565b8096505050505050509250925092565b600081518084526020808501808196508360051b8101915082860160005b85811015611f875782840389528151604081518652868201519150808787015281511515818701528682015160606001600160a01b03808316828a015283850151935060a09250608083818b0152611f4960e08b0186611910565b928601518a8403603f1901858c0152929450611f658584611910565b9501511660c09890980197909752505098850198935090840190600101611eee565b5091979650505050505050565b60208152600082516101606020840152611fb2610180840182611910565b90506020840151601f1980858403016040860152611fd08383611910565b925060408601519150611fee60608601836001600160a01b03169052565b60608601519150808584030160808601526120098383611910565b92506080860151915061202060a086018315159052565b60a0860151915061203660c086018360070b9052565b60c086015180151560e0870152915060e086015191506101008186850301818701526120628484611ed0565b908701518051600790810b61012089015260208201516001600160a01b03166101408901526040820151900b61016088015290935091506120a09050565b509392505050565b600080604083850312156120bb57600080fd5b6120c483611c69565b915060208301516120d48161173e565b809150509250929050565b634e487b7160e01b600052602160045260246000fdfea2646970667358221220e6e7bb118f1a7873923d715edae9a9697f9e09451604695f167abb3380f9981564736f6c63430008090033",
  "linkReferences": {},
  "deployedLinkReferences": {}
}